:101000000000000000000000E56A00005000000041
:1010100000000000000000000000000000000000D0
:1010200000000000000000000000000000000000C0
:041030003510000077
:1010340038B5012004F0DAFE0121012004F004FF98
:1010440001F008F800F0E4FE012000F0D8FE00F002
:10105400A7F81E4B1B78002B05D01D4801F0B4F8EF
:101064001C4A1D4B1A8004F065FB041C01F0F8FDBA
:1010740001F0CAFA04F0CEFC00F038FF00F063FB84
:1010840004F058FB051CAC420AD0144B1B78002B0F
:1010940006D1002801D1032000E0022001F0A8F8C5
:1010A40004F0FEFB0E4B0F4C1A682188914206D0C7
:1010B4001B68238001F050FC208801F039FD00F00A
:1010C4002DF8012000F014FB2C1CD1E7290100406D
:1010D400983A000070170000100000402B010040F7
:1010E400244002E0B413004004E04EE20F502DE926
:1010F40020309FE5080093E50008A0E12008A0E166
:10110400010010E39F14000B0020A0E30030E0E393
:10111400CF2F03E50F90FDE8000001E07047704712
:10112400704710B5982382B000065B050191010E4B
:10113400C018030E1322002000F0A6FE002401981C
:1011440000F08BFEC82301345B009C42F7D102B04F
:1011540010BC01BC0047000010B50E4B1B6882B0E8
:1011640001930D4B041C1968FFF7DBFF601D6B2115
:1011740005F006F90C1C081C0199FFF7D2FFFA20B0
:101184000649221C400000F0CDFE02B010BC01BC98
:101194000047C046AC630000A86300005D11000076
:1011A40008B50020FFF7D8FF08BC01BC00470000C9
:1011B40008B5034800F029FD08BC01BC0047C0463F
:1011C400B063000008B5034800F01FFD08BC01BC73
:1011D4000047C046BB630000000051E34300000A1F
:1011E40001C020E000106142012051E22700000A02
:1011F4000030B0E100306042010053E12600009A63
:10120400020011E12800000A0E0211E38111A0017D
:101214000820A0030120A013010251E3030051316F
:101224000112A0310222A031FAFFFF3A020151E378
:10123400030051318110A0318220A031FAFFFF3A1E
:101244000000A0E3010053E10130432002008021AB
:10125400A10053E1A1304320A2008021210153E1E8
:101264002131432022018021A10153E1A1314320F6
:10127400A2018021000053E32222B0112112A01107
:10128400EFFFFF1A00005CE3000060421EFF2FE145
:1012940000003CE1000060421EFF2FE10000A0338B
:1012A400CC0FA001010080031EFF2FE1010851E3D0
:1012B4002118A0211020A0230020A033010C51E309
:1012C4002114A02108208222100051E32112A02120
:1012D40004208222040051E303208282A120829010
:1012E40000005CE33302A0E1000060421EFF2FE136
:1012F4001FFF2FE10000A0E1000050E30201E0C362
:101304000201A0B31A1400EA000051E3F7FFFF0A38
:1013140003402DE9B1FFFFEB0640BDE8920003E076
:10132400031041E01EFF2FE17047C04600B50A28B4
:1013340002D1054B0D221A60034B1860034B1B6846
:101344009A06FBD501BC004700C000E014C000E0D1
:1013540010B5041C02E00134FFF7E8FF002C02D0B2
:1013640020780028F7D110BC01BC004700B50A4B17
:1013740019680A4A08781060094A1078013800068A
:10138400000E1070074A101C0131083019608142A8
:1013940000D31A6001BC00470C000040000001E0CB
:1013A400990000409000004030B5194B1A68802421
:1013B40022431A60174A1A21116000200432106077
:1013C400C1212432116003221A600121043B1960F7
:1013D400114B1D682C431C60104C382525600434C7
:1013E40020600F48F22404601B201860043B19603D
:1013F4000C4B0D491868014019600C4918680143E9
:1014040019600B4B19689143196030BC01BC00474B
:101414000CC000E000C000E00C0001E0000001E0AE
:10142400280001E000C002E0F0FFF0FF0500050025
:10143400088002E008B5FFF7B7FF124B19680622CF
:101444000A431A60104A0023136011680F4A11609E
:101454000F4A136011680F4A11600F4A13600F4A54
:1014640013600F4A0F4B1A6001332722FF331A60AF
:101474000D4B80221A600D48FFF76AFF08BC01BCBF
:101484000047C046080001E07C130040841300407C
:101494008013004074130040781300408813004008
:1014A400EC10000028F1FFFF10F0FFFFC8630000FC
:1014B40000B5002803D0044B07221A6001E0024B58
:1014C400186001BC0047C046040001E010B50007E5
:1014D400400F022813D0022802D8012848D143E043
:1014E400032802D0062843D109E0234B1A68234B72
:1014F4001968013119601206214B120E1A60214B32
:101504001B681DE0204A2149126809783F290FD839
:101514001206120E1A701E4A111C013340318B42FE
:1015240000D3131C194A117801310906090E1170F0
:10153400184A164914680878844201D2097811605F
:101544000D4A1268D107DDD40E4A136010E0124B25
:101554001B78002B02D0FFF709FF05E00F4B1A6838
:1015640002218A431A6003E0034B1B689A06EED4F7
:1015740010BC01BC0047C046140001E078130040D1
:101584008813004000000040000001E09800004083
:10159400500000407C13004099000040040001E02A
:1015A40038B5074C236840252B43FA2023604000BC
:1015B40000F09EF82368AB43236038BC01BC0047AD
:1015C4000C0001E010B5041C00F0A2F8164B1B78C7
:1015D400072B10D8154B164A1968101C0C700830CC
:1015E40001311960814200D31A600F4B1A7801321D
:1015F4001206120E1A700F4B1B689A0601D5FFF7DC
:10160400B5FE0D4B084A18681178884201D2127849
:101614001A6000F086F8094B196802220A431A601E
:1016240010BC01BC0047C0469900004004000040C3
:1016340090000040140001E080130040040001E029
:1016440010B5041C00F064F8144B1B78002B01D176
:10165400002412E0124B19680A782270114A101CF7
:10166400013140301960814200D31A600B4B1A7863
:10167400013A1206120E1A70012400F052F8074BB8
:101684001B78002B06D1084B1B68002B02D10120CC
:1016940000F02EF8201C10BC02BC08479800004043
:1016A4000800004050000040B405004008B5202365
:1016B4009B6900F003F808BC01BC0047184708B553
:1016C40020231B6E00F003F808BC01BC0047184738
:1016D40010B5054B1C6820235B6E00F007F8001959
:1016E40010BC02BC0847C0469C0000401847C046D6
:1016F40038B5041C002800D10124FFF7E9FF051CBC
:10170400FFF7E6FF401BA042FAD938BC01BC0047F2
:1017140008B520231B6900F003F808BC01BC00478E
:10172400184708B520235B6900F003F808BC01BC26
:101734000047184708B52023DB6900F003F808BC0C
:1017440001BC0047184708B52023DB6E00F003F8FE
:1017540008BC01BC0047184708B520231B6F00F0E4
:1017640000F8184708B5064B064A19680A401A607B
:101774008022196812040A431A60FFF7EDFFC0467D
:10178400444002E0000030FF031C303B09220020EB
:101794009A4240417047F8B5041C002506E0AB00AE
:1017A4005D1901366D00303F26607D192668377853
:1017B400381CFFF7E9FF0028F1D1281CF8BC02BC53
:1017C40008470000F0B59BB0219E041C0D1C02923A
:1017D4000193700602D46949059101E0684A0592B3
:1017E400F30601D501239E4302980A2805D0022856
:1017F40003D0102801D00024BAE0F10702D420223B
:10180400069201E030230693B00717D5002D06DABF
:1018140001992D2201396D420191039210E0730761
:1018240004D50198013801902B2108E0320705D531
:10183400019B2020013B0193039001E000210391CF
:101844002023321C1A40079205D0029B102B02D190
:10185400019802380190002D04D1302209AB1A708E
:1018640001273AE0002702990A2915D010291ED031
:10187400022903D000220492002526E0414B2B408C
:10188400002B04DA0222013B524213430133049336
:10189400EB0F5D196D1018E0281C0A2104F070FD8F
:1018A400281C04910A2104F061FD051C0DE0364B4F
:1018B4002B40002B04DA1022013B52421343013324
:1018C4000493EB171B0F5D192D11059B04981A5CEB
:1018D40009ABDA550137002DC5D120993B1C8F4245
:1018E40000DA0B1C01981121C21A0E4203D006E043
:1018F400202121700134013A511C0029F8DC03999C
:10190400002901D021700134079800280CD00299D5
:10191400102909D130212170A11C700601D558204D
:1019240000E0782060700C1CF10605D50DE06846D7
:101934001821085C20700134013A511C0029F6DC9E
:1019440003E030212170013B01349F42F9DB1AA9E5
:10195400CB19453B1978013F2170013B0134002F1D
:10196400F8DC03E020232370013A0134002AF9DC77
:101974001BB0201CF0BC02BC0847C046CE6300006C
:10198400DF630000010000800F000080F0B587B025
:10199400039005910292041C0BE1252B01D1002632
:1019A40002E02370013401E1059B5F1C05975D781B
:1019B4002B2D0DD02B2D04D8202D0BD0232D10D161
:1019C4000AE02D2D02D0302D0BD107E0102306E0C4
:1019D400042304E0082302E0202300E001231E4343
:1019E400E2E7281CFFF7D0FE002805D005A8FFF782
:1019F400D2FE029D071C10E02A2D03D00127029D70
:101A04007F420AE0029801370597029D0768043572
:101A1400002F02DA10237F421E43059B1A782E2AD8
:101A240002D00120404218E05A1C049205925B78CF
:101A3400181C0293FFF7A8FE002803D005A8FFF79F
:101A4400AAFE07E0029B2A2B06D1049B01330593CF
:101A540028680435002800DA0020059B19786C29D1
:101A640006D0682904D04C2902D00121494201E062
:101A740001330593059B1B786E2B60D06E2B0DD81C
:101A8400632B17D0632B04D8252B5FD0582B66D13A
:101A94005EE0642B60D0692B61D15DE0732B1BD0B9
:101AA400732B02D8702B5AD13CE0752B65D0782B60
:101AB40055D14FE0F00603D505E02023237001340F
:101AC400013F002FF9DC2B6800E02023013F237045
:101AD4000134002FF9DC23E02A68131C01E00133F0
:101AE4000138002802D019780029F8D1991AF30690
:101AF40003D506E0202323700134013F7B1C994267
:101B0400F8DB002303E0D05C0133207001348B4206
:101B1400F9DB03E020232370013F0134B942F9DBF0
:101B2400043528E07A1C02D101231E4308270090C3
:101B340001962B1D0293201C2968102232E02B1DD4
:101B4400029303982B68221A1A602FE023700EE088
:101B540040231E43102211E002231E430DE02523DF
:101B64002370059B1A780134002A02D022700134B4
:101B740001E0013B0593029518E00A222B1D6C2914
:101B840002D1029329680AE0682906D102932988C0
:101B9400B50704D50904091401E0296802930196E4
:101BA4000090201C3B1CFFF70DFE041C059B013319
:101BB4000593059B1B78002B00D0EEE62370039A57
:101BC40007B0A01AF0BC02BC08470EB400B582B03E
:101BD40003AA02CA0192FFF7D9FE02B008BC03B0FF
:101BE40018470FB430B5C3B046AA02CA01AC201CD2
:101BF4004192FFF7CBFE051C201CFFF7A9FB43B065
:101C0400281C30BC08BC04B018470FB430B5C3B0AE
:101C140046AA02CA01AC201C4192FFF7B7FE051C7C
:101C2400201C00F0C3F843B0281C30BC08BC04B02E
:101C340018470000024B1870024B19707047C046D9
:101C4400A0000040A100004008B500200021FFF7DB
:101C5400F1FF08BC01BC004708B5044A044B1A60F4
:101C6400FFF7F2FF08BC01BC0047C046F063000068
:101C7400A400004008B5074A137808331B061B0E5E
:101C840013707E2B03D900F0C3F8FFF7DDFF08BC07
:101C940001BC0047A100004008B500F0B9F8FFF707
:101CA400D3FF08BC01BC0047F0B520380006000E85
:101CB4008300C018274B1B6883B0C3180193264BBD
:101CC4001878264B1978021DCB1D12061B06120E1E
:101CD4001B0E00F08BF8002517E0012000210134D1
:101CE40000F09FF824060120002100F09AF8240E49
:101CF4000120002100F095F8082CEED101352D06C5
:101D04002D0E052D01D100261AE00024E5E7019AE5
:101D1400535D1F4201D1002400E03F240120211C17
:101D240000F07FF80120211C00F07BF80135012030
:101D3400211C00F076F8052DE9D10136082E05D0D6
:101D440080277F04B7403F0E0025E0E703B0F0BCD6
:101D540001BC0047A4000040A0000040A1000040D6
:101D640008B50D2803D1104B00221A7019E00A2877
:101D740002D100220C4B11E0031C203B1B061B0E5E
:101D84005F2B00D93F20FFF78FFF074B1A780632ED
:101D94001206120E1A705E2A03D900221A70FFF777
:101DA40069FF08BC01BC0047A000004010B5041C3A
:101DB40002E00134FFF7D4FF002C02D02078002881
:101DC400F7D110BC01BC004708B520235B6A00F0C2
:101DD40003F808BC01BC0047184708B520239B6AD8
:101DE40000F003F808BC01BC0047184710B52024D4
:101DF400E46A00F003F810BC01BC0047204708B5B2
:101E040020231B6B00F003F808BC01BC00471847F3
:101E140008B520235B6B00F003F808BC01BC004745
:101E2400184708B520239B6B00F003F808BC01BCDD
:101E34000047184710B5041CC7210020FFF7F1FF25
:101E440060000019142104F091FA0106090E012022
:101E5400FFF7E7FF10BC01BC004710B582B001904A
:101E640001AC217801208908FFF7DBFF61780120AC
:101E74008908FFF7D6FFA17801208908FFF7D1FF71
:101E840002B010BC01BC004708B5FFF7AFFF08BCA7
:101E940001BC004700B5064B00201A78002A05D083
:101EA400013010330828F8D10120404202BC084711
:101EB400A800004000B50368072B06D8044A1B019C
:101EC4000021995401235B42036001BC0047C046D2
:101ED400A800004008B504480021802203F0E9FF6F
:101EE40008BC01BC0047C046A800004038B50B4CF4
:101EF400251C8035FFF7ECFB2378002B08D06368A2
:101F0400834205D800232370E068A36800F008F832
:101F14001034AC42EED138BC01BC0047A8000040EC
:101F24001847C046F0B583B001900E1C171CFFF78C
:101F3400B1FF051C00280EDB094C030108331E51B8
:101F44001B195F60FFF7C4FB01992B011A19401894
:101F5400506001221A5503B0281CF0BC02BC08478B
:101F6400A800004000B50422002801D0024B00E084
:101F7400024B1A6001BC00470C8002E0048002E0BE
:101F840008B5042807D8054B8000C358002B02D09D
:101F9400081C00F005F808BC01BC0047A013004071
:101FA4001847C046014B18787047C04629010040C5
:101FB40000B5074B1B78002B01D0012003E0072359
:101FC4008342804140420006000E02BC0847C046DE
:101FD4002A01004000B5022813D0022802D80128A3
:101FE40007D108E0032809D0042802D18030FF304B
:101FF40008E0002006E02023586803E02023186846
:1020040000E01C2002BC084708B503200021FFF7AC
:10201400B7FF08BC01BC004708B5011C0420FFF74A
:10202400AFFF08BC01BC004708B5094B1B78002B67
:102034000AD0002801D0002004E0012000F0CCFEEA
:102044000006000EFFF7F6FE08BC01BC0047C046C0
:102054002901004008B5FFF73DFF00F061FE00F0E4
:102064007DFF00F0BFFC034803F044FC08BC01BC46
:102074000047C046D924000038B50D1C814201D266
:10208400002011E0041C0CE0201CFFF791FF002845
:1020940006D0012004F068F8201C012104F02AF97C
:1020A4000134AC42F0D9012038BC02BC084700001E
:1020B40008B5022809D0022802D8012818D107E05F
:1020C400032807D0322813D106E08020000205E05F
:1020D400002003E0C02000E08020C002064A0A403D
:1020E400531E9A410B0B000BD1180918FFF7C4FFBC
:1020F40008BC01BC0047C046FF0F000008B504F04F
:1021040013F90448FFF7D6FE0348FFF7D3FE08BCD3
:1021140001BC0047140000401800004038B50378A3
:10212400051C112B01D0012B21D1052403E02B5DCB
:10213400002B08D101340C2CF9D1EB7A002B02D1FD
:1021440004F0F2F813E0E30702D404F0EDF801E040
:1021540004F0DEF82C1923789800C31858000549B8
:102164002A1CFFF7DFFE044B18600023237038BCE1
:1021740001BC0047212100001400004010B50C22CE
:102184000D49041C03F09FFE05220023A15C0132CB
:102194005B180C2AFAD19800C018084B4000084973
:1021A400221CC018FFF7BEFE064B1860201CFFF768
:1021B400B5FF10BC01BC004790130040DC050000D3
:1021C400812100001800004038B5074C051C201C74
:1021D400FFF770FE281C05490022FFF7A3FE2060CC
:1021E40038BC01BC0047C0461C0000406527000005
:1021F40010B5041C002806D1064B1B78002B02D016
:102204000548FFF7E1FF201CFEF78AFF10BC01BC64
:102214000047C046290100403075000010B5074C46
:10222400074B2060211C1888042201F059FD216805
:102234000448FFF7D6FC10BC01BC00479C130040C7
:10224400B8130040EC65000070B5041C151C1E1C7E
:10225400022905D0022909D3032904D0002019E05A
:1022640080231B0201E0C023DB02E418200BFFF7EC
:102274009FFE00280DD0012003F076FF311C2A1C9C
:10228400201C012303F0C8FF0648291C221CFFF769
:10229400BCFC0120FFF7C2FF0348FFF795FF70BCA9
:1022A40001BC0047F2650000983A0000F0B5A1B007
:1022B400041C0D1C161C1F1C32286BD00020FFF7B9
:1022C400B3FE0020012103F0BFFD0120FFF797FDBD
:1022D4002D2C59D02D2C0FD8212C21D0212C04D8D1
:1022E400002C19D0202C76D124E02B2C37D02B2C89
:1022F4003AD8282C6FD12DE0502C59D0502C04D82A
:10230400322C47D03D2C66D14CE0642C46D0FF2CB7
:1023140059D05A2C5FD14EE0281CFFF75BFE37E002
:10232400324B9E4257D1324B9D4254D1314B012204
:102334001A7050E0F643B5424DD1281CFFF738FE21
:10234400002848D0012003F00FFF281C012103F0CE
:10235400D1FF40E0281C311CFFF7AAFE3BE0281CFB
:10236400311C03F0F8FE13E0802E01D9002433E081
:10237400281C6946321C03F0DCFE1F4B6946188892
:10238400321C01F0ADFC2DE0281C311CFFF774FE5B
:10239400041C21E0381C03F0DDFD1CE0381C00F0B7
:1023A40033FB18E02D06280E311C00F04BFD12E023
:1023B400FFF7A4FE0FE0281C3604431E9841310C9D
:1023C40003F0A8FA07E00D4B9E4204D10C4B9D424A
:1023D40001D1FFF7C7F901240A48FFF7F5FE201CD5
:1023E400FFF71CFF21B0F0BC01BC004765646F6DB2
:1023F40020646F672A010040B8130040654D746F74
:102404006F626552983A0000F8B5041C10200D1C48
:10241400171C00F0E1FC00280AD003F08BF9013806
:102424000006000E012803D80120FFF7F7FE42E062
:10243400FFF764FE637A227A1B021343A27A120422
:102444001343E27A12061343022B01D0042B01D169
:1024540000260DE0194B00221A700020FFF7E4FD5E
:102464000121002003F0F0FC0120FFF7C8FC012645
:102474003A1C291C201C00F069FC251C011C0120AD
:10248400FFF77EFD0C350120FFF7C8FE0C48291C20
:102494000C2203F018FD237B112B01D0012B0AD150
:1024A400002E08D0DA0603D5281CFFF767FE02E0E9
:1024B400281CFFF733FEF8BC01BC00472B01004089
:1024C4009013004008B50020FFF7A8FE08BC01BC2B
:1024D4000047000008B5044A1080081C00F05EFDA7
:1024E40008BC01BC0047C046B8130040F0B591B029
:1024F400FFF7D2FB00F0D8FA060603F009FA051C30
:1025040000F022FA354A041C09A8631E9C41031CEE
:1025140083CA83C383CA83C31268360E1A60002C2D
:1025240001D12F4900E02F492F48FFF76EFB002C03
:102534001AD000F087FA011C2C48FFF766FB002430
:1025440000F0FEF90019037D002B0AD0062C02D1FD
:102554000A20FFF705FCA30009AA2548D158FFF774
:1025640054FB0134072CEBD100F090FA3C2103F02A
:10257400FDFE011C1F48FFF748FB1F48FFF745FB02
:10258400731E1B061B0EFD2B03D91C48FFF73DFBD6
:1025940007E00321301C03F0E9FE011C1848FFF793
:1025A40034FB03F0AFF9072400942C7801946C7881
:1025B4000294011C681C421C40780390531C5278FE
:1025C40004925A7805929B78032206930D480823B7
:1025D400FFF71BFB11B0F0BC01BC0047D065000045
:1025E400FE65000001660000056600001866000034
:1025F4001D66000021660000346600003D66000090
:102604002F6600004266000038B5FFF761F8041C2D
:1026140003F0E1FB00283CD0264B1A78264B002A15
:1026240024D11C600020FFF7FFFC244B1B78002BF7
:1026340002D02348FFF7C8FD224C2378002B0FD08B
:10264400FFF7E6FB0121002003F0FEFB0120FFF76A
:10265400D6FB03200021FFF793FC0023237001E045
:10266400FEF7B0FD134B01221A7020E01B68E41A38
:10267400154B1B889C4201D9FFF774F8134A9B1829
:102684009C4214D9FFF732FFAF200001FFF730F866
:102694000DE003F0A0FB041C002808D1054D2B78A5
:1026A400002B04D0044B1860FEF782FD2C7038BC5C
:1026B40001BC0047280100408C1300402901004060
:1026C400983A00002B0100401000004048F4FFFF3E
:1026D40008B5FFF71DF81C4B00221A601B4A0321A2
:1026E400116002221A601A4B23221A600122043B51
:1026F4001A600C33AA221A6055221A60043B196826
:10270400FF220A40232A02D01B68D905EBD5114BBE
:102714001A685105FBD5104A032111600C32AA2115
:102724001160552111601968FF220A40232A02D042
:102734001B689A05D7D5094B01221A60FEF7F1FFF1
:1027440008BC01BC0047C04600C01FE004C01FE035
:1027540084C01FE088C01FE080C01FE000C11FE0EC
:10276400F0B583B0FFF7CAFCFFF7B4FB5E48FFF790
:1027740038FAFEF7D4FC5D4B1B683C20C01A0006F7
:10278400000E03F0CBFB0120FFF7ECFB0020FFF76A
:1027940024FBB921082003F0A1FC554D0020FFF7CC
:1027A400E1FB03202860534B1A6802431A60524A23
:1027B400524C1168214011608021490029601D6834
:1027C4002943196011680C4014604D491C6821406C
:1027D40019604C4914682140116080211468C905AE
:1027E40021431160484A146805210C4314600432E3
:1027F40014680425AC43146014680126B4431460BF
:10280400083A1568414C2C431460414C2268022557
:102814002A4322603F4A1F683A401A603E4B1A68B6
:1028240082431A601A6832431A603C4B1A68114397
:102834003B4A1960156000221F681A60FFF748FFC1
:10284400384A01235B421360012003F0BBFA23687A
:102854001A1C2A40019217D023681D43256003F0F7
:102864002BF80020FFF7B0FC00F0ACF92E4B2F4CF6
:102874001A682188914233D01B68238000F06CF8D9
:10288400208800F055F92BE0002003F0AFFA284C23
:10289400374219D00121002003F0D6FAFFF7FCF9E2
:1028A4000020FFF7C1FB0120FFF7A9FA6B461A1DB0
:1028B4001378022023700021FFF762FB032000211C
:1028C400FFF75EFB1B4805E0FA2080002670FFF747
:1028D4007BFC1948194B1B78002B01D0FFF774FCC3
:1028E40003B0F0BC01BC004786660000204002E053
:1028F400048002E0088002E000C002E0FFFFFCFF69
:10290400FF7FFFFFFFFFFF3F48C11FE0058000007E
:10291400004002E0FFFFFEFF04C002E040C11FE0F0
:10292400C0C01FE01C000040244002E0B41300407B
:102934002B010040983A0000881300002901004050
:1029440000487047BC130040024B1878431E98415E
:102954007047C046BC13004030B51F4D2B788BB078
:10296400002B35D001AC201C00F030FAAB78626843
:102974009A422DD16B78A2689A4229D1A369EB18A7
:102984001B7D002B24D0002003F030FA012100200D
:1029940003F05AFA0020FFF747FB0120FFF72FFA54
:1029A400083500210020FFF7EBFA291C0C220B4804
:1029B40003F089FAFFF7F6FA002806D00848FFF773
:1029C40003FC281CFFF7DAFB02E0281CFFF7A6FB38
:1029D4000BB030BC01BC0047BC1300409013004056
:1029E40060EA000010B5074CA0204002211C3C22E4
:1029F40003F09FFB2378012B01D00023237010BC2C
:102A040001BC0047BC13004000B583B001A93C22BF
:102A140001900B4803F057FA012003F0A5FB0121B4
:102A2400142003F067FCA02001993C2201234002FA
:102A340003F0F2FBFFF7D6FF03B001BC0047C0462A
:102A4400BC13004038B50E4B03205C7800F0C4F989
:102A5400002808D10C2C03D90C3C2406240E02E0D7
:102A6400002C00D10C24074D054B281C9B780649EB
:102A7400221CFFF7AAF8281C38BC02BC0847C04631
:102A8400BC130040F81300409B66000000B5044BE3
:102A94001888044B984200D1002002BC0847C04665
:102AA40002140040FFFF0000014B18787047C04635
:102AB4000014004008B502F03DFE002801D00020BB
:102AC40004E0044B1878FF38431E984108BC02BC4C
:102AD4000847C0460014004010B582B0041CFFF73C
:102AE400E9FF002801D1002C19D16B4607331C7073
:102AF4000D4B002C05D01A7801321A7003F022FB1A
:102B040000E01C70012003F02FFB074B1878074BE3
:102B14006946C01807310122012303F07DFB02B08E
:102B240010BC01BC0047C046001400400250010024
:102B340008B5142103F02EFC0906002902D1012056
:102B4400FFF7CAFF08BC01BC0047000008B50B4BE7
:102B54001B78FF2B04D09A00D318094A9B001380DA
:102B6400012003F001FBA8204002054902220123B1
:102B740003F052FB08BC01BC0047C04600140040EF
:102B84000214004008B5002803D10123064A5B4221
:102B94001370012003F0E8FA1520012103F0AAFBC9
:102BA40008BC01BC0047C0460014004008B5A8207A
:102BB40040020349022203F0BCFA08BC01BC0047EE
:102BC4000214004008B502F0B5FD124B0006000ED9
:102BD4001870002816D1104B1B78013B1B061B0EE6
:102BE400012B08D803F0AEFAFFF7E0FF0020FFF74F
:102BF400C9FFFFF7ABFF084B1B78022B02D1002063
:102C0400FFF76AFF034B1A78034B1A7008BC01BC28
:102C14000047C046FE130040FF13004030B583B0A8
:102C24006B46002207331A7000240B4B6D460735A0
:102C3400E018291C012203F07CFA01342B782406C5
:102C4400240EFF2BF1D1A01E044B0006000E03B08E
:102C5400187030BC02BC0847025001000014004048
:102C640008B502F067FD064B0006000E1870054B10
:102C74001870FFF79BFFFFF7D1FF08BC01BC0047AA
:102C8400FE130040FF13004008B5FFF7C7FFFF28FD
:102C940001D1FFF78BFF0120FFF774FFFFF756FF09
:102CA40008BC01BC004730B5002300240AE0002C16
:102CB40001D0002500E0CD5CC554CD5C002D00D1D1
:102CC400012401339342F2D330BC01BC004700001D
:102CD40030B5431F1B061B0E012B1BD9042800D142
:102CE40002200E4C42018C2518326D00A218631983
:102CF400FC3415685560022801D01D685D60043BF2
:102D0400043AA342F5D1054B4201D150022801D027
:102D1400FC33596030BC01BC0047C0463001004060
:102D240008B5084B00221A80902200215200064860
:102D340003F0BFF8C020DB21FFF79EF908BC01BCFB
:102D44000047C0462C0100403001004038B51D4CFE
:102D5400037A2371231CFC335A600D1C601D09681F
:102D64002022FFF7A0FF201CD82225306968FFF736
:102D74009AFF154AD42312885B009A4201D9FFF7BF
:102D8400CFFF012003F0F0F90F4D2B889801C018F4
:102D9400C0230C4C1B038000C0188222211C52004B
:102DA4000123206003F038FA002003F0DDF92079D4
:102DB4002168FFF78DFF2B8801332B80206838BCF6
:102DC40002BC0847500200402C01004008B503F043
:102DD400E5F808BC01BC004700B501380006000E48
:102DE400102804D8154B8000C258154B9746002074
:102DF40022E0187920E058791EE098791CE01889BF
:102E04001AE0588918E0988916E0D88914E0D8693E
:102E140012E0186A10E058690EE0053300E006334A
:102E2400D87F09E00733FBE70833F9E7188A03E0A2
:102E3400986901E02833187802BC0847A4660000AA
:102E44005403004038B50C1C112879D83E4B80003F
:102E5400C3589F463D4B994272D13D493D4A0B1C94
:102E640031CA31C313CA13C323CA23C330CA30C3FC
:102E74004FE0642964D80C06354B200E1871FEF718
:102E8400D9FF46E0631E9C41314B5C7141E0631EF7
:102E94009C412F4B9C713CE0631E9C412C4B0533A1
:102EA4001EE02B4B198134E0002949D0284B59816D
:102EB4002FE0002944D0264B99812AE000293FD0F5
:102EC400234BD98125E0224BD96122E0204B1962A2
:102ED4001FE01F4B59611CE0631E9C411C4B0633D1
:102EE400DC7716E0631E9C41194B0733F8E7FEF7C5
:102EF4008FFF174B0833F3E7FEF78AFF144B1C824E
:102F040007E0134B996104E0631E9C41104B283386
:102F14001C70114B0E4C0120236003F025F9FF2097
:102F24000121000303F0D6F9012003F01DF9FF206D
:102F3400211C2C220123000303F06EF9FFF764F82F
:102F440038BC01BC0047C046E86600007501FADEE3
:102F540054030040306700000800725038B50C4C30
:102F6400FF202C220003211C03F0E3F82268094B04
:102F74009A4209D0084A231C23CA23C313CA13C381
:102F840023CA23C330CA30C338BC01BC0047C0467F
:102F940054030040080072503067000030B58BB015
:102FA40008A9041C00F064F8002857D0FEF7FAFFC3
:102FB400002802D02D48FFF707F9089C6378012BFD
:102FC40006D0002B4DD0022B19D0032B42D130E078
:102FD40003AD201C291C00F051F8002842D0089BA6
:102FE4005A79197912020A439979DB7909040A4357
:102FF4001B061A43201C291CFFF706FA31E0E17A6C
:10300400A37A09021943237B1B041943637BE27BE4
:103014001B061943A37B12021A43237C1B041A4385
:10302400637C1B061A43231C207A1233FFF73EF9F4
:1030340017E06D46263505AB0093201C07A906AAA8
:103044002B1C00F037F82A8807980699059BFFF790
:10305400FBF806E0FFF736FA002003E0201CFEF739
:10306400DBFF01200BB030BC02BC0847983A0000DB
:1030740008600078083843425841704730B5C47836
:10308400837824021C43021C183C18322404240CA8
:103094000A60002308E0C5182D7E0133002D03D1FA
:1030A400D3184B60012002E0A342F4DB002030BCC3
:1030B40002BC084730B5039C051C10352560447BD1
:1030C400057B24022C43857B2D042C43C57B2D06D4
:1030D4002C430C60417A047A09022143847A240443
:1030E4002143C47A240621431160C27881781202F4
:1030F4000A43103A1A8030BC01BC0047012051E257
:103104001EFF2F013600003A010050E12200009A10
:10311400020011E12300000A0E0211E38111A00153
:103124000830A0030130A013010251E30000513123
:103134000112A0310332A031FAFFFF3A020151E338
:10314400000051318110A0318330A031FAFFFF3AE1
:103154000020A0E3010050E101004020032082216F
:10316400A10050E1A1004020A3208221210150E1CF
:103174002101402023218221A10150E1A10140200D
:10318400A3218221000050E32332B0112112A011A7
:10319400EFFFFF1A0200A0E11EFF2FE10100A003D0
:1031A4000000A0131EFF2FE1010851E32118A02104
:1031B4001020A0230020A033010C51E32114A021EE
:1031C40008208222100051E32112A021042082222F
:1031D400040051E303208282A12082903002A0E106
:1031E4001EFF2FE11FFF2FE10000A0E1000050E3CC
:1031F4000000E0135E0C00EA000051E3F8FFFF0A50
:1032040003402DE9BCFFFFEB0640BDE8920003E05C
:10321400031041E01EFF2FE108B5054B1B68002B8E
:1032240003D0081C111C00F005F808BC01BC0047C1
:10323400A00500401847C04610B506480468002C95
:1032440004D0081C111C1A1C00F006F810BC01BCA8
:103254000047C0469C0500402047C046024B18600A
:10326400024B19607047C046A00500409C05004011
:1032740008B501F0BBF9084B08491860002201F0B9
:1032840039FC01F03BF9064800F0F8FC054800F071
:10329400FBFC08BC01BC004794040040A4050040AA
:1032A4001D3200003D320000F0B5C9B003934EABAF
:1032B4001E880192072E01D8092704E0771C7F108D
:1032C40005373F043F0C45AC2171090A6171694619
:1032D4000A1D3B0611781B0E019A0293A3703B0A48
:1032E400E370130A05AD2070E371000A0023802205
:1032F4006070A1712372637200215200281C02F0D5
:10330400D8FD029A04235B426B7053000133002101
:10331400AB703E2329705B4206A8211C0A22EB7085
:1033240002F0D1FD002E05D0684622300399321CEC
:1033340002F0C9FD124880235B00838000F0D0F9BD
:10334400104C023705237A00237001236370A28096
:1033540005A9A06802F0B7FD201C00F0B9F9694680
:103364000A1D094B1188094A198000231370084A61
:103374001360084A49B01360F0BC01BC0047C04662
:10338400B806004088030040980400409A040040B6
:1033940080030040B0050040F8B5314C061C201CE9
:1033A4000F1C00F0E7F923780122051C13420CD00E
:1033B4002C490A602C4A002111602C4A2C4912889D
:1033C40052181204120C012A28D99A0731D5254B18
:1033D4001B68002B24D0274B1A78052A20D1996822
:1033E4000A78FF2A1CD1244C9A88201C02F06BFD19
:1033F4002378FF2B02D1A378C22B01D01F4827E0EA
:10340400237BE27A1B029B18002B01D01C481FE08F
:10341400211C0D31301C3A1C02F055FD00201BE02C
:10342400144880235B00838000F05AF90E4B00227D
:103434001A60002D01D101200EE00B4B1A68511CBB
:103444001960FA235B009A4201D8281C04E00D4855
:10345400FEF7DBFB01204042F8BC02BC0847C04633
:103464009A04004080030040B005004098040040E6
:10347400FFBFFFFFB8060040B80500405C670000CE
:10348400616700006667000030B5141C0C4A0D1C0F
:103494001188031C481C108083B01A1C02202B1CAA
:1034A4000094FFF701FF281C211CFFF775FF00287B
:1034B40002DDFEF71DF9F6E703B030BC02BC084795
:1034C4008403004038B500F0EBF8194B0024194A86
:1034D40019481C7080235B00938018498380184B23
:1034E4009160836000F0FCF8164B1C60104C201CAB
:1034F40000F040F92378051C9A0716D40028F5D06B
:10350400FEF721F9281CFEF7F3F80E4B1A68013276
:103514001A60FA235B009A42E8D90B48FEF775FB60
:103524000A48FEF7E5F8FEF71DF938BC01BC004770
:103534009A04004088030040B80600409C04004000
:1035440094030040B00500406867000010270000A5
:1035540030B595B00C22051C0C1C4C48002102F01F
:10356400A8FC0C2200214A4802F0A3FCFEF718F83C
:10357400484B00221A60FFF7A5FF694601230B7030
:10358400042200234B708A70CB700B714B71E2786C
:10359400CB718A7162790A7222794A72A278CB72EB
:1035A4008A7263780B7323783B484B730E22FFF7C0
:1035B4006BFF0028E1D12C0A022369465B420B70A1
:1035C40001234B708B700023CB700B714B718D7189
:1035D400CC7131480822FFF757FF0028ECD139237A
:1035E40069465B4201220B700C20042340424A705E
:1035F4008B708A7100234A720A2208728A720A73D3
:10360400CB700B714B71CB71CB724B7322480E2272
:10361400FFF73AFF0028E2D1362369465B420B707C
:10362400012303224B708B7000238A71CB700B71C2
:103634004B71CB7118480822FFF726FF0028EBD105
:103644006C46292323700223012563700023A5708F
:10365400E37023716371A571E3710F486946082211
:10366400FFF712FF0028EBD1694600220B48FFF751
:103674000BFFFA20C000FEF73BF8FFF723FF054BD2
:1036840015B01D60002030BC02BC08478803004010
:10369400B8060040B405004003700000024000007A
:1036A4000A4BDA7838218A43DA70DA7807218A43B8
:1036B400042149425961191CDA70303100221A621E
:1036C4005A620A701A709A707047C046F006004039
:1036D400024B002298605A621A627047F00600405A
:1036E400024A04235B42D06053617047F0060040F5
:1036F40010B50C090F224140084B11404900C95A2A
:10370400614009040C0C0009604002405200D05A88
:10371400090D484010BC02BC0847C0469867000029
:1037240000B50023002259000123034001320B435A
:103734004008102AF7D11B04180C02BC08470000EB
:1037440010B5002906D044788178611804780919E5
:10375400C943C1700649CB6201235B4208624B83B3
:103764000420012348628A624B7610BC01BC0047E6
:10377400F0060040F0B5CD4C89B000230390271C1F
:10378400037030370026BE57002E00D093E0656AE0
:10379400002D59D0207F002803D0FDF713FF267792
:1037A4001EE0236A6A461D781F3215700133618B4F
:1037B4002362281CFFF79CFF6083C02D04D1DB200B
:1037C400FDF700FF242305E0DB2D06D1DB20FDF708
:1037D400F9FE23235B42237702E0281CFDF7F2FE67
:1037E400B24C237F002B66D1636A013B6362002BDA
:1037F40061D1A26AE16A22626162A362E362002A81
:1038040059D1637E002B0CD06276608BFFF788FF62
:10381400A74B020A1A705870236202236083636202
:1038240049E0C020FDF7CEFE039A1178A268002A71
:1038340005D05278002A02D1A260012300E00023BF
:10384400039D0B432B703BE0A378042B4BD166788C
:1038540002231E400BD0C020FDF7B4FE954A9648C3
:1038640000210C320423FFF76BFF657023E0A56889
:10387400002D22D0C020FDF7A5FEE378A2685907E9
:103884004025490F29435578ED01294338258B48B4
:103894002B400B430370918815780F2309012B40AB
:1038A4000B43437093881B098370012193889268AA
:1038B400FFF746FF26710026AFE12379002B01D1E3
:1038C4006426AAE1C020FDF77DFEE27838237C4817
:1038D4001340402213430370012100220023FFF709
:1038E4002FFF2571E7E7C020FDF76CFEA278714B2E
:1038F40092009A18704804230021FFF721FF3D70BD
:10390400627823789200D2186E4BD35C6570A370F2
:1039140000209BE1607C2B78002807D06A4AD318EA
:10392400DC3B1B782B700023637460E1C02B00D058
:1039340058E16169002900DA50E1039F634A3F7846
:10394400634B107005971D785F787F19BC469F788C
:10395400BC44DF78BC446246FF271740FF2F03D0E6
:103964000123237100232FE1E768EA0901976D061B
:103974007A70584FED0F3D701A78574D00929206A9
:10398400520F2A70009A07252F1C544D17402F7090
:103994000F275D783A1C019F2A403A709B782D09C5
:1039A4001B011D434B4A4E4B1D801378002B43D003
:1039B400AB1C8B4242D101234A4A5B4213804A4BDF
:1039C4006561186009E0424B464AD85D1188FFF7EB
:1039D4008FFE444B013718802760434C2768032F20
:1039E400F1DD00232360314BDC680BE0049AA3680B
:1039F400985C3C4B1988FFF77BFE049B394A0133E2
:103A040010803B60384F3B680493AB42EEDB354F8C
:103A14003888FFF785FE334AA3681080595D020A8F
:103A2400914205D15B19FF225B78104098420AD07D
:103A34001E4B01221A71C5E08D4204D0234D01238F
:103A440023712B78C0E0194B234AD978147848079E
:103A5400420F944215D09A68002A12D05278002A54
:103A64000FD0440F01340720044081430022214336
:103A74009A60D97030331A70144B197801220A43B2
:103A84001A700A4BDA681178012973D10021303396
:103A94001970164B1960164B94681968002340E09E
:103AA40004489A00801800222AE0C046F00600402C
:103AB400D0060040C867000090670000C4060040BC
:103AC400E8060040B867000094670000E406004080
:103AD400C8060040DC060040E5060040EC06004055
:103AE400D8060040DA060040CC060040E00600405C
:103AF400D4060040A75C05784A1C0130AF420FD1C0
:103B0400111C042AF6D156490B6056490A60012B50
:103B140015D0002B08D0022B17D0032B52D11AE05A
:103B24000133032BBCDD95E04F4B1A78012A02D8F0
:103B340001225A7046E0FFF7B3FD042344E04A4AE9
:103B4400117800293ED113703CE0474A11780029CE
:103B540038D0537036E0444B1A78012A32D8022206
:103B64001A7000225A62414B1A78012313431B0630
:103B74001B0E29E05969002924D01978022921D182
:103B84005178002917D0012119713948D978007862
:103B94008C06640FA04215D107240130204038243C
:103BA400C000A1430143D97095800022DA602F4BF5
:103BB4000A22197804E09580D9602C4B19780222E6
:103BC4000A431A70294B1B78059F039A3B431370D1
:103BD4001D0703D5244B002230331A7004235B42A3
:103BE400214A19E0DB2B02D10123637415E01E4A3C
:103BF4005369002B06DA68461E491F3000785918AD
:103C0400087108E0D1688888834206DA68461F3064
:103C140089680078C85401335361134CE368002B5E
:103C240007D06D461F35281CFDF70AFD002800D07B
:103C340070E60D4B30331A781106002902DD013A83
:103C44001A7000E01E70084B3033187809B0F0BCCD
:103C540002BC0847024A1360024B1960B2E7C0462F
:103C6400E0060040D4060040F0060040E4060040B0
:103C7400EC060040C806004070477047014B1860CE
:103C84007047C04620000040014B18607047C04692
:103C94002400004000B5064B03E059891A1C8142F8
:103CA40003D01B68002BF8D10022101C02BC08476B
:103CB4003007004000B5064B03E019891A1C814205
:103CC40003D01B68002BF8D10022101C02BC08474B
:103CD40024070040014B18607047C0462807004085
:103CE400F8B50F1C151CFFF7D5FF061C002824D0BF
:103CF400134CC28A80239B011A432068002101F0DF
:103D04006BFA2A1D1204120C2068022101F064FAD5
:103D1400206804212A1C01F05FFAB2892068062178
:103D240001F05AFA2068391C08302A1C02F0CBF83A
:103D3400291C0831206801F081F9F8BC01BC004756
:103D44002C07004070B5061C081C0C1C151CFFF742
:103D5400B1FF002806D1054905480C814D81CE608C
:103D640001F029FB70BC01BC0047C046900800402C
:103D74002407004030B585B0051C6C467223011C35
:103D8400684623700E310E230230637001F02BFA63
:103D9400EA8A6846082101F01FFAAA8A68460A21BD
:103DA40001F01AFA6A8968460C2101F015FAAA8909
:103DB40068460E2101F010FA6A46042000211023FF
:103DC40001F0F8FA054BA86969461B68102200F057
:103DD40007F805B030BC01BC0047C04620000040D5
:103DE4001847C04630B583B001AC71232370022359
:103DF4006370051C42890221201C01F0EDF9221C8C
:103E040004200021042301F0D5FA054BA8691B689E
:103E1400211C042200F006F803B030BC01BC0047AA
:103E2400200000401847C04630B587B001AC051CDF
:103E3400A1707023011C684623700E310F230730D4
:103E4400637001F0D0F9EA8A201C092101F0C4F959
:103E5400AA8A201C0B2101F0BFF96A89201C0D21BC
:103E640001F0BAF9AA89201C0F2101F0B5F9221C2E
:103E740004200021112301F09DFA054BA8691B6859
:103E8400211C112200F006F807B030BC01BC004729
:103E9400200000401847C04608B5081CFFF70AFF79
:103EA400011C002802D0034801F092FA08BC01BCAE
:103EB4000047C0462407004010B50123041C0372C8
:103EC400FFF790FF211C044801F082FA00232377B6
:103ED40010BC01BC0047C04630070040F0B5114C8F
:103EE400071C201C85B0151C0E3006220E1C01F088
:103EF400EAFF0123A582237200250023E582A7613E
:103F04006372211C084801F056FA311C1822002360
:103F1400064800950195029500F072FF05B0F0BCCB
:103F240001BC0047A008004030070040F0680000D2
:103F3400F8B5104B061C0F1C1C6815E0201C0E3035
:103F4400311C062201F0CCFF051C00280BD1237A7A
:103F5400012B08D1201C391CFFF766FF0548211CE2
:103F640001F036FA25772468002CE7D1F8BC01BCAF
:103F74000047C046300700400CB430B585B00A1C79
:103F840008AB09A91B78084C0091051C0391206813
:103F9400291C01F04BFA011C206801F04FF805B010
:103FA40030BC08BC02B018473C08004030B5144B84
:103FB40083B0051C1C6810E0A369AB420CD101F06E
:103FC4001DFA61896072A389021CE08A00910621AE
:103FD400FFF7D2FF082323722468002CECD1094B8D
:103FE4001B6807E01A68D168A94202D112681A60F6
:103FF4001A1C131C002BF5D103B030BC01BC0047C4
:10400400300700402407004010B5041C0A066189EB
:1040140082B0120EA389C08A00910721FFF7ACFF7A
:10402400201CFFF749FF02B010BC01BC0047000090
:1040340070B5041C007A03380006000E151C84B009
:104044000B7A4A7A052866D8354E8000805987460F
:10405400032B5AD14D7C0B7C2D021D4302D0012D24
:1040640015D158E04B7B0A7B1B021343A38101F05B
:10407400C5F92C49021C6072009502910425E08A5E
:10408400A38904210195FFF777FF257243E0291CDA
:1040940063310906090E201C29E0052B04D0062BE8
:1040A40035D0042B37D101E006230CE01031A3896D
:1040B40000260391E08A103D0521009601960295A1
:1040C400FFF75AFF0523237225E0042B1DD110317D
:1040D4000026103D0391E08AA389052100960196EC
:1040E4000295FFF749FF07232372201C0021FFF7E5
:1040F4009BFE10E0052B08D1F5E7062B07D0072B14
:1041040009D1201CFFF7D8FE05E0062B03D1201CA3
:10411400111CFFF779FF04B070BC01BC0047C04616
:10412400D867000028000040F0B5714B051C1868E2
:104134008BB00491002805D06E4B00211C682A1C0A
:10414400049BCFE0EF79AB793F021F436E782B7865
:10415400012F00D0B7E02A7A36021E430592664B3F
:104164006F7A1E400B2A00D9A2E0644B9200D35808
:104174009F466A7B2B7B12021A430592AB7B079303
:10418400ED7B101C0695FFF795FD051C002808D152
:1041940002230090019302900321301C3A1C002357
:1041A40074E0301C00F080FC0490002800D19BE0F7
:1041B400534B1B7F002B02D05248FDF712FD504C8D
:1041C4000499201C083106220E3001F07CFE6A4658
:1041D40014239A5AEB68A282A361E68201F01EF9C5
:1041E400069A1302079A1343A3810223237201231D
:1041F4006081237767724448211C01F0DCF8201C9D
:10420400FFF7B8FD70E06A7B2B7B12021A436B4602
:1042140026331A803C4B1C6815E0E38AB34211D163
:10422400059BDB0703D5637ABB420BD105E06B46E4
:10423400263362891B889A4204D1201C291C049AC3
:10424400FFF7F6FE2468002CE7D14DE0EB7AAA7A5A
:104254001B020C3513430095301C09213A1C2FE036
:104264006B7B2A7B1B021343012B02D0022B1AD136
:104274000FE06B46263340221A800022009202226D
:1042840001920293301C0B213A1C0123FFF774FEA8
:104294002AE001230093002301930293301C0B2195
:1042A4003A1C0223F2E76B46263300221A8002E00E
:1042B4006B46263318800093301C01213A1C0223DC
:1042C400FFF75AFE10E0381CFFF7E4FC00280BD07F
:1042D400049B0849083B2A1C1B0480690C680832AB
:1042E4001B0C391C00F012F80BB0F0BC01BC0047E9
:1042F4002807004024000040FF0F0000F067000082
:104304004008004020680000300700402047C046B5
:1043140070B584B00E1CFFF7BDFC00280FD000243C
:10432400627AE08A00250321002300950196029514
:10433400FFF722FE0448211C01F04AF8257704B057
:1043440070BC01BC0047C0463007004030B585B0A2
:10435400FFF7A0FC041C002819D0A189627A6389A4
:10436400C08A00250091032101950295FFF704FE00
:1043740001F044F8042160722172A389021CE08ACE
:1043840001910549029104210095FFF7F5FD05B05F
:1043940030BC01BC0047C04628000040F0B503789B
:1043A40085B0041C0F1C052B4FD0052B02D8032B02
:1043B40075D104E00E2B33D0732B70D156E002ADCF
:1043C400411D281C00F00FFFA178002926D1267971
:1043D400E37836021E43374B1D681CE0281C0E3060
:1043E40002A9062201F07CFD002813D12B7A012BAF
:1043F40010D1EE8201F002F8687201F00FF8032385
:10440400011C68812B72E88A6A7AAB8A00910221C6
:10441400FFF7B2FD2D68002DE0D140E0281C11E02B
:104424000279C37812021A43234B1B889A4236D16D
:104434004379002B33D102AD811D281C00F0D3FE3B
:10444400281C1621FFF774FD29E00679C37836028B
:104454001E43184B1D6806E0EB8AB34202D1281CA8
:10446400FFF72AFD2D68002DF6D118E0134B1B68C9
:10447400002B14D1C1788378090219430D4B002213
:104484001B6804E0D88A884200D101221B68002BF3
:10449400F8D1002A03D10A48132200F0B1FC094BD9
:1044A4003A1C1B680020211C00F00EF805B0F0BC7B
:1044B40001BC004730070040106900002807004095
:1044C40040690000200000401847C04610B582B083
:1044D400FFF7E0FB041C00280CD000F08FFF61897B
:1044E4006072A389021CE08A00910621FFF744FD53
:1044F4000823237202B010BC01BC004708B5074A68
:10450400074B1A60074A084B08481A6000F0E6FA9D
:10451400074800F0E9FA08BC01BC00476008004005
:104524003C080040340700402C070040A143000031
:104534002D4100000048704724680000F0B5002AAF
:1045440021D0134B134D1E68134F3270EC190136F2
:104554001E60A64200D11D600D4B1D682870681CAA
:104564001860A04201D10B481860094B1B680878F9
:1045740018700133A34200D1064B013A0131002ADD
:10458400F5D1034A13600020F0BC02BC0847C046C2
:10459400640E0040580A00400603000008B5031CDE
:1045A4000A1C0520191CFFF7C9FF08BC02BC0847F8
:1045B40008B5031C0A1C0620191CFFF7BFFF08BC22
:1045C40002BC084700B5034B1B68002B00D098625F
:1045D40001BC0047600D004000B5034B1B68002B75
:1045E40000D0D86201BC0047600D004009480A4B66
:1045F400186000230362094B0360094B4360094BB5
:104604008360094BC360094B0361094B4361094B48
:1046140083617047C4080040600D00405D4600009F
:104624003D460000A1450000B5450000C945000015
:10463400DD4500003945000010B5064C2368186AB2
:1046440000F0BAF92368002200201A6210BC02BCF0
:104654000847C046600D004010B5104C104A23684E
:1046640010491A621A1CFC3211670F49D1670F4AAC
:104674000F490A600F490A6000211170D861186A55
:10468400012383600C4BC36000F088F92368052282
:1046940005330020DA7710BC02BC0847600D0040E7
:1046A400480A0040640D0040680E0040580A00406B
:1046B400440A0040640E0040C1460000F0B5A74C17
:1046C40023680533DB7F89B0062B13D1FEF7E8FF9F
:1046D4002068BA2380225B005200C2527130FF303E
:1046E400FEF7FEFF2268BE235B000021D154053291
:1046F4000223D377994C20687D30FF30FFF73AF8D6
:10470400BE25019023686D005A5DD00712D50321A0
:104714005A1DD17700211963914D996B49190129CB
:1047240008D80623FA204000D377FCF7E1FFFA20EB
:104734000001FFE0BE2252009A5C96077AD5BA22A5
:10474400520080249D5A6400A54202D900F0F0FE74
:10475400251C824C2368181CFC33D96F2A1C3C305E
:1047640001F0B1FB23681A1CFC321564B822520014
:10477400995C052902D0062937D12FE0DA6B7948F4
:104784001040794A191C3C31904224D103A8774C3B
:10479400021CE0CCE0C2A0CCA0C24A7A0C7A12027D
:1047A4001219002A03D07248FDF72FFA31E0CC79B0
:1047B4008A792402A41824048E78CA78240C0588E3
:1047C400002D03D00430A542F9D1B7E0211C69487B
:1047D400FDF71BFA1DE09B6A081C02E0181CDB6A4B
:1047E4003C30291C00F0D8F813E0B8267600624863
:1047F4009D19FDF70AFA0024AB68195D092C01D054
:10480400202200E00A225D480134FDF7FEF90A2C5B
:10481400F2D1524CBA23206880225B005200C2526B
:104824007130FF30FEF75CFF236800221A63053302
:104834000222DA77494B1A68531DDB7F042B73D0AD
:104844004F4B196831296DDD002119604D484E4BDD
:1048540000681968814267D04C4C4D4F0E78E019BE
:1048640001311960814200D11C60474B19680F78EF
:1048740001311960814201D144491960131CFC3390
:10488400196F414B341C1B6807E01D7801330D7010
:10489400834200D13D4B0131013C002CF5D13A4912
:1048A4000B60FC32156F381C00212A1C331C009647
:1048B40000F080FD294BB2221B6852009F546846C9
:1048C4000088B42252009852324A01219954B322EA
:1048D40052009C54FC33186F854203D0291C321CAF
:1048E40001F0F1FA1D4CBA23206880225B005200CB
:1048F400C2527130FF30FEF7F3FE20686530FF309E
:10490400FEF7E6FE2368BE21002249005A545A638A
:104914001A636A78297812020A439A6305330422D7
:10492400DA7701E0013119600199002901D0081CEE
:1049340000E0012009B0F0BC02BC08471202A12526
:10494400B2186D0012045819120C0A3101F0BBFAA6
:10495400024B1A68A0235B00D4525AE7600D004052
:10496400FFBFFFFFFF00FF00FF00C200546800000C
:10497400296800002E680000436800004B680000AE
:10498400C0080040640E0040440A0040580A004039
:1049940006030000650100001847C04608B5044B33
:1049A4001B685B6800F006F808BC01BC0047C04601
:1049B400680F00401847C04608B5044B1B689B6845
:1049C40000F006F808BC02BC0847C046680F004067
:1049D4001847C04608B5044B1B68DB6800F006F8AE
:1049E40008BC01BC0047C046680F00401847C046D9
:1049F40008B5044B1B681B6900F006F808BC02BC30
:104A04000847C046680F00401847C04608B5044B25
:104A14001B685B6900F006F808BC01BC0047C0468F
:104A2400680F00401847C04608B5032802D1054A5C
:104A3400054B1A60044B1B681B6800F007F808BCA0
:104A440001BC0047C4680000680F00401847C04616
:104A54008160704700B543424341002902D1584266
:104A640058410AE0002B06D103680868834202D348
:104A74009842804100E00120404202BC084708B54A
:104A840043424341002902D15842584108E0002BD7
:104A940002D00120404203E008300831FFF7DAFF7A
:104AA40008BC02BC0847000000B5074BDB6804E003
:104AB400D9891A1C814203D01B68002BF8D100222B
:104AC400101C02BC0847C0466C0F00407047002011
:104AD4007047000000487047B0680000014BFC3389
:104AE400186270476C0F0040014BFC3358627047EA
:104AF4006C0F004010B50E4B041C1860002A00D146
:104B04000C4A9A600A4B0022DA601A1CFC32596083
:104B140010339361084B094813625362236900F010
:104B240011F86369064800F00DF810BC01BC004799
:104B34006C0F00402C000040D14A0000BD50000022
:104B4400514F00001847C0467047000098B500AFA9
:104B540084B06C466423237000236A466370A0709B
:104B640000210420032300F025FC054BFC33684698
:104B74001B6A032100F006F8BD4698BC01BC00473F
:104B84006C0F00401847C04698B500AF84B06C461F
:104B94006223237000236A466370042000210223E9
:104BA40000F008FC054BFC3368461B6A022100F048
:104BB40007F8BD4698BC01BC0047C0466C0F0040D6
:104BC4001847C04698B500AF84B06C466123237083
:104BD400012363700C4BDA68002301E0126801338F
:104BE400002AFBD1A370221C04200021032300F01F
:104BF400E1FB054BFC331B6A201C032100F006F883
:104C0400BD4698BC01BC00476C0F00401847C04625
:104C1400B0B500AF84B06C4660232370002363708A
:104C24000A4D92235B00EB5C6A46A370FC350420BA
:104C34000021032300F0BEFB2B6A6846032100F029
:104C440007F8BD46B0BC01BC0047C0466C0F00402D
:104C54001847C04698B500AF84B06C4673232370E0
:104C6400022363700221C289684600F0B5FA6A46DD
:104C740004200021042300F09DFB054BFC3368460F
:104C84001B6A042100F006F8BD4698BC01BC00472D
:104C94006C0F00401847C046F8B500AF86B06C46AC
:104CA4000323237000260A236370A670051CC2899F
:104CB4000321684600F090FA291C601D083100F0B9
:104CC40092FA01236A46E372042000210D2326731D
:104CD40000F070FB054BFC3368461B6A0D2100F0A5
:104CE40007F8BD46F8BC01BC0047C0466C0F004045
:104CF4001847C04670B50A4B061CDC6809E0201C46
:104D04000830311C0622251C01F0EAF8002803D0E3
:104D14002468002CF3D10025281C70BC02BC084771
:104D24006C0F004010B5041C00F06AFA606210BCFD
:104D340001BC004738B5124C011C201C0622083067
:104D440001F0C1F8012300255B42201C211CE381F2
:104D54006574143000F04CFB0A4B201C2362FFF7EF
:104D6400E1FFC4235B00E5520748C3235B00E5521F
:104D74000C30211C00F01FFB201C38BC02BC08476F
:104D840094100040815000006C0F004070B54278D0
:104D9400037812021A43174B1B8882B0041C0E1CA2
:104DA4009A4216D1C11C684600F01DFA6846FFF706
:104DB400A1FF002806D0037C052B01D1FFF76CFF6F
:104DC400002012E06846FFF7B5FF002801D0012358
:104DD4000374094B1A1CFF32517E013951761B684A
:104DE400201C9B68311C00F009F802B070BC02BCA6
:104DF4000847C046F06800006C0F00401847C046E2
:104E04000FB410B5094B82B0FC3304AA9C6902CAE2
:104E1400201C019200F054FA011C201CFFF7B6FF7D
:104E240002B010BC08BC04B01847C0466C0F004068
:104E340008B5194B92225200995C012929D1174ACD
:104E44009A5C0A4225D1FF335B7E002B21D05308A4
:104E5400042B19D8124A9B009B589F46114800E026
:104E64001148FFF7CDFF0FE0C0211048C90101E050
:104E74000F480321FFF7C4FF06E09223064A5B00B4
:104E84000221D154FFF7C4FE034A044BD15C013123
:104E9400D15408BC01BC00476C0F00402501000040
:104EA400686800003069000050690000286900004B
:104EB40048690000F8B5071C012824D1204C92262B
:104EC4007600A35D002B31D1A36860681B6800F0F5
:104ED4003BF8051C00280CD1236860681B6800F0AF
:104EE40033F8051C002807D0A36860685B6800F0ED
:104EF4002BF8FFF749FE1EE0231CFF335F76114BAE
:104F0400A755E05412E0002810D10D4C92256D00F5
:104F1400635D022B0AD1236860685B6800F014F8B3
:104F2400A36860685B6800F00FF86755FFF770FED0
:104F3400FFF77EFF0025281CF8BC02BC0847C046CA
:104F44006C0F0040250100001847C046F0B5051C51
:104F540040782B7800021843354B83B01840FFF794
:104F6400A3FD6E78041CAB78EF7800285BD0B606FE
:104F74003F02B60F1F43FFF7D5FE012E02D0022ECB
:104F840051D120E0C3267600A05B00284BD0283006
:104F9400291D20183A1C00F096FFA15B791809041A
:104FA400090CA153C4256D00635B07338B4238DAC7
:104FB400204B201CFC335B6A283000F03DF80023B2
:104FC4006353A3532DE0C3267600A35B002B2AD1A1
:104FD4006A792B7912021A43131C381D0333019288
:104FE4000090BB4208DA134B0104FC33090C5B6AE2
:104FF400281C00F021F814E0271C2837291C009AEB
:10500400381C00F060FF009968460A04011D0888F6
:10501400C423120C5B00E052A253381C022100F09E
:10502400DBF8FFF705FF03B0F0BC01BC0047C04646
:10503400FF0F00006C0F00401847C04638B5041C31
:105044004078237800021843094B18400D1CFFF7E1
:105054002BFD002801D0FFF765FE064B1B68291CB9
:10506400DB68201C00F008F838BC02BC0847C046C6
:10507400FF0F00006C0F00401847C04638B5051CF0
:1050840000F0BAF9041C00F0BBF8636A094A9B18E3
:10509400984207D3201CFFF7DDFD281C0549FFF7C4
:1050A400D7FC00E0AB60281CFFF794FC38BC01BCC3
:1050B4000047C0461027000070B50378033B1B0669
:1050C4001B0E82B0051C0E1C0C2B5CD83C4A9B00AA
:1050D4009B589F463B4B8278FF335A7653E0811CA2
:1050E400684600F080F8EB7A012B4CD16846FFF754
:1050F40001FE002802D16846FFF71CFE0323037457
:10510400694601223048FFF77BFE3CE0411D6846BA
:1051140000F069F86846FFF7EDFD041C002832D062
:10512400AB78002B13D1052202742A79E978120294
:105134000A43C281437400F063F860621434201C93
:105144002249FFF785FC201CFFF744FC19E01D48A9
:10515400211C0C3000F03CF915E08378002B12D1AF
:105164000079EB7800021843FFF79EFC041C00282A
:1051740009D01430FFF73CFC1248211C0C3000F01D
:1051840027F9FFF71FFD0F4B92225200985C01286C
:1051940008D10F4A995C014204D028780E2801D125
:1051A40001319954074B3604FC33310C281C1B6A1B
:1051B40000F010F8FFF73CFE02B070BC01BC0047E1
:1051C4007C6800006C0F0040E868000010270000B5
:1051D400250100001847C046425401310904090C56
:1051E400120A425470474B7903700B794370CB78A1
:1051F40083708B78C3704B7803710B78437170475D
:1052040008B5FCF765FA08BC02BC084700B5034BB7
:105214001B68002BFCD101BC0047C046241200408F
:1052240010B5064B186804E00468C36800F008F879
:10523400201C0028F8D110BC01BC004720120040FB
:105244001847C046024A00231360024A136070479D
:10525400201200402412004008B5011C024800F04E
:10526400B7F808BC02BC08472412004008B5011C6A
:10527400024800F0ADF808BC02BC08472012004008
:1052840038B5051C084C05E0291CFFF7F8FB00287D
:1052940003DA246820680028F6D123682B6025608F
:1052A40038BC01BC0047C0462412004008B5011CAC
:1052B400024800F080F808BC01BC004720120040FE
:1052C400F8B50B8803700B881B0A4370051C4E68E5
:1052D400032465E0422B35D0422B06D8312B5ED314
:1052E400322B0ED9342B5AD81AE0482B09D0482B2C
:1052F40002D8452B53D14AE04E2B40D0502B4ED1EF
:1053040035E011682955131D0A0431780134322916
:1053140001D0482902D1120E2A5501341A1C3EE04C
:105324001368111D2B551A0A01342A5501341A0C1D
:105334002A5532780134342A02D11B0E2B550134FC
:105344000A1C2CE013685979295519790134295517
:10535400D97801342955997801342955597801347B
:1053640029551B7801342B550432013417E02819D0
:105374001168171D102200F0A6FD10340EE0281944
:105384001168171DF82200F09EFDF83406E0281974
:105394001168171DF02200F096FDF0343A1C013616
:1053A4003378002B96D1E31E2404AB70200CF8BC98
:1053B40002BC0847704700B50268131C02E08B4228
:1053C40004D01B68002BFAD10A60016001BC0047BD
:1053D40000B507E003688B4203D10B68036000202B
:1053E40004E0181C0028F5D10120404202BC084703
:1053F40000230360416070474068704700B5064B66
:105404001A78FF2A01D1012200E001321A70024BFE
:10541400187802BC0847C0463E000040024B18887A
:10542400421C1A807047C0463C000040F0B5141C72
:1054340080229201051C83B00A4300211E1CFFF741
:10544400CBFE281C06210122FFF7C6FE2C72294B35
:10545400013CA4006E72E758089E0C242AE0312B0C
:1054640027D3322B02D9442B23D110E032682A559A
:10547400110401343A782404331D240C322A04D153
:105484000A0E2A5501342404240C1E1C11E0331D79
:105494001968368801961E1D00290AD0019B002B2D
:1054A40007D028191A1C00F00EFD019B1C192404B6
:1054B400240C01373B78002BD1D1221F1204281C65
:1054C400120C0221FFF788FE221C083A1204281C41
:1054D400120C0421FFF780FE221C0C3A1204281C33
:1054E400120C0A21FFF778FE03B0201CF0BC02BCAA
:1054F4000847C046C86900007047000038B509066F
:10550400080E0649151C1A1C04AB0C681B88291CC0
:1055140000F006F8002038BC02BC084744000040F4
:105524002047C046014B18607047C046281200400F
:1055340008B5044B1B68002B01D000F005F808BC2B
:1055440001BC0047281200401847C0460FB410B5EC
:1055540084B006AA094C02CA201C0392FFF7B0FECD
:10556400074B0090012118680022231C00F038F832
:1055740004B0002010BC08BC04B01847341200402A
:105584002C12004010B50D4800F020F80C4B1868A0
:105594000C4C002804D00C4B198800F01DF801E0D5
:1055A40000F01CF82060074B1B68002B01D0002082
:1055B40001E00120404210BC02BC08470155000034
:1055C400301200402C12004040000040014B186093
:1055D4007047C046381300400020704700207047D1
:1055E40070B582B01C1C06AB051C1B88022975D043
:1055F400022903D8012900D092E005E0052978D0DA
:10560400062900D08CE06EE0627892083D2A04D02E
:10561400201C191CFFF7BAFB82E0221C0120012187
:10562400FFF7C8FE62780323134022781B0213435A
:10563400013B242B74D83C4A9B009B589F46FFF7A0
:10564400E7FA6DE0E078FFF735FC69E0E378002BDA
:1056540001D0281C00E00020FEF73CFB60E0FFF7CF
:1056640073FA5DE00020FFF771FA59E0E11C684627
:10567400FFF7B9FDA27A637A12021A43281C69461D
:10568400FEF72CFC4CE02079E378000218436179A2
:10569400FEF71CFF44E02179E378A279090219435B
:1056A400637912021A43281CFEF74CFB38E0217977
:1056B400E37809021943281CFEF7EEFB30E0207959
:1056C400E37800021843FEF741FE29E02079E378ED
:1056D40000021843E179FEF71BFE21E0201C191C8F
:1056E400FFF7ACFC1CE0101C211C1A1CFEF7F8FA96
:1056F40016E02378702B02D0712B11D102E0FEF753
:1057040055FC0DE06378094C201C002B02D0FFF7F8
:105714006FF905E00649FFF79BF9201CFFF75AF9DA
:1057240002B070BC01BC0047F46900003C130040A7
:10573400204E000000B5074B1B88002B01D1002030
:1057440006E03B2B03D9782B01D9012000E002208D
:1057540002BC08474C130040174A802311685B01C0
:105764000B431360154B164A19680A401A60154911
:105774008022086812041043086019680A431A60FA
:10578400114A124B11680B401360114B11491868F0
:1057940001401960C0211068890301431160C022CF
:1057A400196812030A431A600B4A0C4B1A600C4B1B
:1057B40001221A707047C046C4C01FE0088002E08E
:1057C400FFFFBFFF0C8002E000C002E0FFFFCFFF3D
:1057D40004C002E0FF3FF0FF00102000004003E09F
:1057E4004800004000B5002802D0244B01221A6072
:1057F400224A1368062B3CD8214A99008A589746B6
:10580400012233E01F4A802311689B030B4313607A
:1058140002222BE01B4B1A68FF218A431A601A4AA2
:1058240019680A431A60032220E0184A1168002903
:1058340021DA0904890D114A032B03D1144B198071
:10584400042317E0134B198013E00E4B1A68FF2151
:105854008A431A60104A19680A431A60052205E04F
:10586400084B0E4A19680A401A600022034B1A605A
:1058740001E006231360002002BC084750130040D7
:10588400886A0000004003E008000001044003E0CF
:105894004E1300404C13004040000001FFFFDFFFA7
:1058A40010B5044C2078FFF79DFF207010BC01BC9C
:1058B4000047C0464800004010B50C4A002313803E
:1058C4000B4A13800024FFF7EBFF084B1B88002BC7
:1058D40003D0074B1B88002B05D102200134FBF7B2
:1058E40007FF322CEFD110BC01BC00474E1300401F
:1058F4004C130040024B1A681860101C7047C046D5
:10590400701300400148002303717047581300408E
:105914002820704700B50A4A0B1C83B01188002860
:1059240007D001220092019206481A1CFFF70EFECE
:1059340002E00548FFF70AFE03B001BC0047C04679
:1059440056130040B86900005869000038B5064C89
:10595400051C0023291C2371201C042200F0B3FA27
:10596400257138BC01BC00475813004030B583B0E2
:105974000120FBF79DFD28211B48FDF7E9FD011CD3
:10598400002802D01948FCF740F9194C2368002B71
:105994000ED020235868174900F0FCFC68460A1C06
:1059A4001549FCF712F96846FFF7D0FF002323607E
:1059B400FDF75EFC11491248FDF750FC0320FFF788
:1059C40033F8FFF7DFFD0F48FFF7ACFD01210E4868
:1059D400FFF7BCFD80220D4952000D48FFF7B6FDCC
:1059E40003B030BC01BC0047C8320000C26A0000EA
:1059F4004C00004010270000D66A0000395C00000B
:105A04006D5A0000ED5D0000E06800000110000028
:105A14000869000008B5FEF7F9FF08BC01BC00479F
:105A240038B50D4C0D4B2568226813400C4A236091
:105A3400C8231360043A1360002809D03220FBF70E
:105A440057FE084B08221A603220FBF751FE2560EE
:105A5400281C38BC02BC084700C002E03F0FFFFF0F
:105A64000C8002E0048002E070B5037888B0041C66
:105A7400162B52D0162B0FD8052B00D1B3E0052BD3
:105A840003D8032B00D0B4E0A1E00E2B00D187E0B3
:105A9400142B00D0ADE09FE0602B0DD0602B05D817
:105AA400172B5DD0182B00D0A3E042E0702B21D03F
:105AB400722B00D09DE00BE08378022B00D098E09D
:105AC4004E4C4F49201C4F4AFCF77FF84E4865E086
:105AD400811C06A8FFF787FB627A237A12021A4315
:105AE4004A4B1A80617B237B090249481943FFF71B
:105AF4002DFD7EE0C11C06A8FFF775FBA27A637A30
:105B040012021A43414B1A80A378002B71D1FA2157
:105B14000120C900FFF7FEFE6BE006AD811C281CC6
:105B2400FFF761FB291C0422364B3A48FFF70EFDB0
:105B34005FE0811C68460622013000F0C4F9211C94
:105B4400684608311022073000F0BDF9237E6D4607
:105B5400EB7501235B4268462B7000F0A5F848E022
:105B64006D46861C0135311C0622281C00F0ABF959
:105B7400684600F0FDF806AC00280AD0201C291C59
:105B8400FFF731FB6A46211C07322348FFF7DEFC8E
:105B94002FE0201C311CFFF726FB2048211CA6E720
:105BA4000379C2781B021343174A12881C48934294
:105BB40001D100219BE702881A48934201D11A4976
:105BC40095E70288934214D118480D218FE7184BAA
:105BD40001221A7000200AE00279C37812021A43E3
:105BE4000A4B1A8005E0124B00221A700120FCF7C0
:105BF400FFFA08B070BC01BC0047C0466013004007
:105C0400DB6A000058130040F86800005613004097
:105C14001869000060690000006900002069000044
:105C240038690000706900000407440068690000D6
:105C340054130040F8B50B4C2368071C0E1C151CAC
:105C4400002B0CD0881880225200521B002100F037
:105C540030F92368381C311C2A1C00F005F8F8BC04
:105C640001BC0047701300401847C04608B5031C28
:105C74001822081C191C00F05CFA08BC01BC00477F
:105C840038B50378402293430D1C041C0370012093
:105C940000F06AFA281C211C1822012300F0BCFA27
:105CA40038BC01BC00470000F0B5C31D89B0802496
:105CB4000193051C471C002364022BE002AE301C38
:105CC400211CFFF7D3FF3378FF2B07D1281C211C9D
:105CD400FFF7D6FF301C211CFFF7C8FF02AE327855
:105CE400C0231340802B3FD168460930391C06225B
:105CF40000F0F6F8002837D1F27DEB7D9A422BD1E3
:105D040068460F300199102200F0EAF8002823D1E8
:105D140001231834154A944202D8002BCED016E041
:105D2400002B14D1012000F01FFA80200121400231
:105D340000F0D0FA012000F017FA88200121400277
:105D440000F0C8FA8021281C4902FFF799FF09B026
:105D54000020F0BC02BC084702A802787F2313404D
:105D64000370211CFFF78CFF0023D2E7FE1F010004
:105D7400F0B5802487B0061C471C64026D46684653
:105D8400211CFFF773FF2A78C0231340802B0ED108
:105D940068460130391C062200F0A2F8002806D11A
:105DA400301C6946182200F08EF8012004E0044BF0
:105DB40018349C42E2D1002007B0F0BC02BC084772
:105DC4001020010008B520239B6D00F003F808BCE7
:105DD40001BC0047184708B52023DB6D00F003F829
:105DE40008BC02BC084718477047000010B5041CE3
:105DF400FBF7A0FC134A8023DB041360E0231B069B
:105E040003221A60FBF752FCFBF759FC00F09CFAE2
:105E1400FBF722FF0120FFF7D5FFFBF70BFBFFF792
:105E24009BFC002C02D00120FFF7FAFD00F08AF958
:105E3400002C03D0FFF79AFD00F0F8F810BC01BC69
:105E44000047C046040000E010B50C1C002801D037
:105E5400FBF7BAFF0020B321FBF7E3FF0120002C7E
:105E640009D0F021FBF7DDFF0020CA21FBF7D9FFA1
:105E74000120602118E0F221FBF7D3FF0020CA21A2
:105E8400FBF7CFFF01201E21FBF7CBFF0020B12140
:105E9400FBF7C7FF0120FF21FBF7C3FF0020B6215A
:105EA400FBF7BFFF01200121FBF7BBFF10BC01BCC6
:105EB400004700B502E00170013A0130002AFADC23
:105EC400002002BC084710B5002303E0CC5C013A73
:105ED400C4540133002AF9DC002010BC02BC08477A
:105EE40030B5031C0024002003E01D5D085D01346F
:105EF400281A002A02DD013A0028F6D030BC02BC80
:105F04000847000000B5002801D1102300E0112348
:105F1400014A136001BC0047084002E008B50A4B7F
:105F24001B683C21C01800F035FA084B1960603B2F
:105F3400196802220A431A600223054A5B4213606D
:105F440008BC01BC0047C046204002E0604002E0BB
:105F5400104002E042690F4B1A600269043B0132AF
:105F64001A60C269043B01321A608269043B1A60F8
:105F7400C268043B01321A608268043B1A604268BA
:105F8400043B1A600268043B1A60034A28331A600F
:105F94007047C0463C4002E0CEFA0DF038B5194BCC
:105FA400041C3C21186800F0F5F9174B21601868AF
:105FB4003C2100F0EFF9154B61601868182100F0DE
:105FC400E9F9134B1B681F25013B2B40E360114B80
:105FD4001A6807231340A3610F4B1868A1600138A6
:105FE4000E4900F0D7F90E4B1B68013B1D400D4BC9
:105FF4001A680D4B13402561E161636138BC01BC33
:106004000047C046204002E0244002E0284002E06D
:106014002C4002E0304002E0344002E06F01000016
:10602400384002E03C4002E0FF0F000010B51E4B78
:1060340007221A6082B064230193019B5A1E0192C5
:10604400002BFAD1194B12221A6064230193019C8C
:10605400631E0193002CFAD10020FFF753FF144B69
:10606400FF221C6004331A6038331A68114B9A42B9
:1060740013D0FCF709FE104A104B1A600122043BAE
:106084001A600522083B1A60043B02221A60043B92
:106094001C60043B1C60043B1C600120FFF732FFC2
:1060A40002B010BC01BC0047404002E0084002E0DE
:1060B4000C4002E0CEFA0DF0DA0700003C4002E0AA
:1060C40000B50422002801D0024B00E0024B1A6004
:1060D40001BC00470C8002E0048002E008B52023E4
:1060E4001B6C00F003F808BC02BC0847184708B54D
:1060F400011C1020FFF7F2FF08BC01BC004708B5E3
:10610400011C0820FFF7EAFF08BC01BC004708B5E2
:106114002023DB6B00F003F808BC01BC00471847E0
:1061240008B520235B6C00F003F808BC02BC0847E8
:10613400184708B520239B6C00F003F808BC01BC89
:106144000047184708B52023DB6C00F003F808BCAF
:1061540001BC0047184708B520231B6D00F003F865
:1061640008BC02BC0847184738B58023051C5B01EE
:10617400002803D00D4A0624136002E00C4A136081
:1061840004240120FFF79CFF201CFFF7B8FF002028
:10619400FFF796FF002D03D0FFF7C2FF8307FBD55F
:1061A400FFF7BEFF38BC02BC0847C046048002E0CB
:1061B4000C8002E008B5FFF7B3FF0123184008BCC8
:1061C40002BC084770B5061C01200D1C141CFFF707
:1061D400CBFF0220311CFFF79AFF0EE028786B1CDE
:1061E400012C07D95D1C1B7800021843FFF77FFFC1
:1061F400023C02E0FFF783FF01E0002CEED1002017
:10620400FFF75EFF01E0FBF79EFAFFF7D3FF0028DC
:10621400F9D170BC01BC0047F0B5802383B05B00AA
:10622400051C0191161C141C9A4200D91C1CFF2247
:106234002A408023A2185B009A4202D90134FF3419
:10624400A41A281C0199221CFFF7BCFF019B1B19EF
:1062540067190193351B0FE080235B002C1C9D42C2
:1062640000D91C1C381C0199221CFFF7ABFF019BB1
:106274001B1901933F192D1B002DEDD1FFF750FF82
:1062840003B0F0BC02BC084770B5061C0D1C01200D
:10629400141CFFF769FF012D04D82020311CFFF7DF
:1062A40036FF05E00120FFF70BFFC720FFF727FFAC
:1062B4000020FFF705FF002C02D105E0FBF743FAAD
:1062C400FFF778FF0028F9D1FFF72AFF70BC02BC62
:1062D4000847000008B5064B0A1C984202D9012061
:1062E400404202E00021FFF7CFFF08BC02BC084790
:1062F400FFFF0F0008B50A1CFF2802D90120404205
:1063040003E000030021FFF7BFFF08BC02BC0847FD
:10631400044A8023DB041360043A11680B431360BE
:106324007047C0460C8002E0044A8023DB041360FB
:10633400034B044A19680A401A607047048002E05B
:10634400088002E0FFFFFFFB08B5FFF7EDFF044BF9
:10635400044A19680A401A6008BC01BC0047C046D8
:1063640004C002E0FFFFCFFF000000007847C046F2
:1063740098EBFFEA00C09FE51CFF2FE12D130000FE
:106384007847C046DFEBFFEA00C09FE51CFF2FE122
:10639400D11400007847C04696F3FFEA00000000DD
:1063A400000000000000000044991100427574745C
:1063B4006F6E2055700A00427574746F6E20446FBE
:1063C400776E0A004442470D0A00303132333435C7
:1063D400363738396162636465660030313233348C
:1063E4003536373839414243444546000000000001
:1063F4000000005F00000007000700147F147F14F2
:10640400242A7F2A12231308646236495522500035
:1064140005030000001C2241000041221C00140856
:106424003E081408083E0808005030000008080818
:106434000808006060000020100804023E5149452D
:106444003E00427F400042615149462141454B3163
:106454001814127F1027454545393C4A49493001F3
:10646400710905033649494936064949291E00364A
:10647400360000005636000008142241001414149B
:1064840014140041221408020151090632497941C9
:106494003E7E1111117E7F494949363E41414122D8
:1064A4007F4141221C7F494949417F090909013E35
:1064B4004149497A7F0808087F00417F4100204014
:1064C400413F017F081422417F404040407F020C3D
:1064D400027F7F0408107F3E4141413E7F09090944
:1064E400063E4151215E7F091929464649494931F1
:1064F40001017F01013F4040403F1F2040201F3FDA
:106504004038403F6314081463070870080761515A
:10651400494543007F4141000204081020004141E5
:106524007F00040201020440404040400001020494
:106534000020545454787F48444438384444442018
:10654400384444487F3854545418087E0901020CD6
:106554005252523E7F0804047800447D400020409B
:10656400443D007F1028440000417F40007C041813
:1065740004787C0804047838444444387C141414A3
:1065840008081414187C7C08040408485454542043
:10659400043F4440203C4040207C1C2040201C3CC4
:1065A4004030403C44281028440C5050503C446433
:1065B400544C44000836410000007F00000041367E
:1065C4000800100808100878464146788B660000D9
:1065D4008E660000906600009366000095660000D9
:1065E400EE63000098660000522025750A002564B9
:1065F40042204020307825780A004E4F00594553F8
:1066040000416C61726D0A456E61626C65643A208A
:1066140025730A0025730A0A0025732C000A0A420E
:10662400617474206C61737465643A2564680A004B
:106634004F6E20666F723A20003F3F680A000A508E
:106644006169723A2025730A0A53572025642E255E
:10665400642E25640A42542025303278253032785D
:10666400253032782530327825303278253032782A
:106674000A57656220436F6465723A205368616DFE
:106684007300646F7A0A005375004D005475005707
:106694000054680053610025643A253032640000D8
:1066A400F62D0000FA2D0000FE2D0000022E000041
:1066B400062E00000A2E00000E2E0000122E0000EE
:1066C400162E00001A2E00001E2E0000222E00009E
:1066D4002C2E0000302E0000342E0000382E000036
:1066E400282E0000582E0000762E0000882E000070
:1066F400922E0000A62E0000AC2E0000B62E000044
:10670400C02E0000CA2E0000D02E0000D62E00009D
:106714009C2E0000DC2E0000F22E0000FC2E000057
:10672400062F00000C2F0000E82E00000800725015
:1067340064000000983A55005500520055000000CE
:1067440000FFFFFF00FFFFFF00FFFFFF00FFFFFF51
:106754000000010400000000204552310020455291
:1067640032005400426C7565746F6F7468206469FC
:10677400646E277420636F6D652075702E0A0A524B
:1067840065626F6F74696E672E2E2E004041007E25
:10679400C0DB0000000081100221833104428552D5
:1067A40006638773088489940AA58BB50CC68DD6B5
:1067B4000EE78FF700020404010104040403030438
:1067C40000000000DADCEDEDACAFEFEEADEFACEDC8
:1067D400DEADD0D0544000009E400000F8400000E0
:1067E400CE4000000E410000FE400000EC420000DC
:1067F400EC420000764100000A4200000A42000018
:106804000A4200000A4200000A420000504200000E
:10681400EC42000064420000EC42000043494E0098
:1068240042435350004E58494F00756E6B6E6F775C
:106834006E20767320636D6420253034780A003F1F
:106844003C253032783E0025303278256300000044
:1068540001000600FE0102001B2808002A2802008D
:1068640000000000604E0000644E00006C4E00000A
:10687400744E00007E4E000010510000E2500000F3
:106884005E5100008A5100008A5100008A510000C4
:106894008A5100008A5100008A5100008A51000088
:1068A4008A510000D8500000D8500000486172643A
:1068B4007761726520756E6B6E6F776E00000000F5
:1068C40049520000B152000071520000855200008C
:1068D4005D520000255200001152000002F4000035
:1068E4007A690000090400008869000005040000BA
:1068F4007C690000130C0000226800000B040000F7
:10690400A869000022F40000AF6900000804000038
:106914008669000024F40000946900000C0400005F
:1069240086690000180C000094690000030C000044
:106934001C660000200C00007A69000006040000B8
:10694400836900001A0C00007A6900000910000035
:106954001C660000040800008F6900000D0400009C
:106964008B6900000F08000094690000240C0000EB
:10697400AB690000333131004232313132310048E9
:10698400310042004231004231500048004231316E
:106994003200483232323200483131343434340037
:1069A4004832003142500033003231323200314536
:1069B400004232000308000096690000323232447B
:1069C40000000000C3690000AF690000976900007F
:1069D400C1690000C0690000AF690000AF69000030
:1069E400C3690000C369000094690000C169000024
:1069F40042560000485600005056000062560000FF
:106A04006856000068560000245700002457000010
:106A14002457000024570000245700002457000086
:106A24002457000024570000245700002457000076
:106A34002457000024570000245700002457000066
:106A44002457000024570000245700002457000056
:106A54002457000024570000245700002457000046
:106A640024570000245700002457000070560000EB
:106A74008A5600009A560000B2560000C256000022
:106A8400D0560000045800000858000018580000B0
:106A94002E5800004E5800002E5800006458000084
:106AA400253032783A253032783A253032783A2512
:106AB4003032783A253032783A2530327800696EAF
:106AC40069745F626334206661696C2028256429D7
:106AD4000A002530346400696E50756C7365257343
